01                        John                           Doe                         Smith               123 Main Street
02000001000000000100USD                                                                                                 
02000002000000000200USD                                                                                                 
02000003000000000300USD                                                                                                 
02000004000000000400USD                                                                                                 
02000005000000000500USD                                                                                                 
02000006000000000600USD                                                                                                 
02000007000000000700USD                                                                                                 
02000008000000000800USD                                                                                                 
02000009000000000900USD                                                                                                 
02000010000000001000USD                                                                                                 
03000010000000005500                                                                                                    
